---
title: Qitmeer RPC
weight: 1
#pre: "<b>1. </b>"
# chapter: true
---

# Qitmeer RPC 说明

## getBlockByOrder
### 函数名：getBlockByOrder {order} {fullTx} 
### 说明：
- order:区块order，qitmeer采用BlockDAG算法进行共识，对区块的先后顺序进行排序。order指区块序列的序号，一个从0开始增大的整数值。请注意order不是区块的高度。
- verbose: 是否显示详细信息，默认为false
- inclTx: 是否包含交易信息，默认为true
- fullTx：是否显示完整交易信息，默认为true

#### 实例1:
```
curl -s -k -u test:test -X POST -H 'Content-Type: application/json' --data '{"jsonrpc":"2.0","method":"getBlockByOrder","params":[1,true],"id":1}' https://127.0.0.1:18131
```
实例1输出:
```
{
  "hash": "0012c535ed43311b0670341fad3a489642c0bc6e6796f836aa6d235826fc9c66",
  "txsvalid": true,
  "confirmations": 20651,
  "version": 12,
  "weight": 433,
  "height": 1,
  "txRoot": "845738befb45db6872e37295b39837cd8dc98e77417754fd4ddab5ff169317be",
  "order": 1,
  "transactions": [
    {
      "hex": "0c000000010a7ebb3e65b3be8a2e3425407e8e649c4bde818b7db70bdb3d4b8c3256745f37ffffffffffffffff01007841cb020000001976a91409eb5fc744c14c8cdd5a05b552c58c1fb6e7ebd088ac000000000000000072b6f25e01175108461004cbac974daf0c2f363636706f6f6c2e636e2f",
      "txid": "845738befb45db6872e37295b39837cd8dc98e77417754fd4ddab5ff169317be",
      "txhash": "93772af2957ecd066841fda4606bfa5e001ac151062c0b3ca7cfea60ec35e8b3",
      "size": 117,
      "version": 12,
      "locktime": 0,
      "timestamp": "2020-06-24T10:12:02+08:00",
      "expire": 0,
      "vin": [
        {
          "coinbase": "5108461004cbac974daf0c2f363636706f6f6c2e636e2f",
          "sequence": 4294967295
        }
      ],
      "vout": [
        {
          "amount": 12000000000,
          "scriptPubKey": {
            "asm": "OP_DUP OP_HASH160 09eb5fc744c14c8cdd5a05b552c58c1fb6e7ebd0 OP_EQUALVERIFY OP_CHECKSIG",
            "hex": "76a91409eb5fc744c14c8cdd5a05b552c58c1fb6e7ebd088ac",
            "reqSigs": 1,
            "type": "pubkeyhash",
            "addresses": [
              "TmPrXkjpjSUBiFG9RZKPjfdsAPbiaar94Ta"
            ]
          }
        }
      ],
      "blockhash": "0012c535ed43311b0670341fad3a489642c0bc6e6796f836aa6d235826fc9c66",
      "confirmations": 20651
    }
  ],
  "stateRoot": "0000000000000000000000000000000000000000000000000000000000000000",
  "bits": "34ad1ec",
  "difficulty": 55235052,
  "pow": {
    "pow_name": "cuckaroom",
    "pow_type": 3,
    "nonce": 5,
    "proof_data": {
      "edge_bits": 29,
      "circle_nonces": "fa50c20086aef40090ebab01295d5102697fcb0229e83b04b0ac4604fd9a6505118a6f05deb21206e88f9c07184fae075e218408884ed90bdfca630cf9e2a60c12fae80f909b831084669a109390e6105aa9c611aea1e71288408713c670641405f9a714abfcf81557ded81665b20f17a17370170628de17d4ccfb1755515618f5456918efd27918d4f4d218f91bb71954e3b11cb648ca1c9779541d51ee6b1ee12a711e0679131f"
    }
  },
  "timestamp": "2020-06-24T10:05:33+08:00",
  "parentroot": "36988b21b970fe3cbc7381dec7760eea50bc869e3bfbc44856a402fac94d3a8a",
  "parents": [
    "36988b21b970fe3cbc7381dec7760eea50bc869e3bfbc44856a402fac94d3a8a"
  ],
  "children": [
    "000de974590581de8294866535b3af182041a4cb29b71a7680b024e3bd7d12da"
  ]
}

```

#### 实例2:
```
curl -s -k -u test:test -X POST -H 'Content-Type: application/json' --data '{"jsonrpc":"2.0","method":"getBlockByOrder","params":[1,false],"id":1}' https://127.0.0.1:18131
```
实例2输出:
```
{
  "jsonrpc": "2.0",
  "id": 1,
  "result": "0c0000008a3a4dc9fa02a45648c4fb3b9e86bc50ea0e76c7de8173bc3cfe70b9218b9836be179316ffb5da4dfd547741778ec98dcd3798b39572e37268db45fbbe3857840000000000000000000000000000000000000000000000000000000000000000ecd14a03edb4f25e05000000031dfa50c20086aef40090ebab01295d5102697fcb0229e83b04b0ac4604fd9a6505118a6f05deb21206e88f9c07184fae075e218408884ed90bdfca630cf9e2a60c12fae80f909b831084669a109390e6105aa9c611aea1e71288408713c670641405f9a714abfcf81557ded81665b20f17a17370170628de17d4ccfb1755515618f5456918efd27918d4f4d218f91bb71954e3b11cb648ca1c9779541d51ee6b1ee12a711e0679131f018a3a4dc9fa02a45648c4fb3b9e86bc50ea0e76c7de8173bc3cfe70b9218b9836010c000000010a7ebb3e65b3be8a2e3425407e8e649c4bde818b7db70bdb3d4b8c3256745f37ffffffffffffffff01007841cb020000001976a91409eb5fc744c14c8cdd5a05b552c58c1fb6e7ebd088ac000000000000000072b6f25e01175108461004cbac974daf0c2f363636706f6f6c2e636e2f"
}
```

#### 实例3:
```
curl -s -k -u test:test -X POST -H 'Content-Type: application/json' --data '{"jsonrpc":"2.0","method":"getBlockByOrder","params":[1,true,false],"id":1}' https://127.0.0.1:18131
```
实例3输出:
```
{
  "jsonrpc": "2.0",
  "id": 1,
  "result": {
    "hash": "0012c535ed43311b0670341fad3a489642c0bc6e6796f836aa6d235826fc9c66",
    "txsvalid": true,
    "confirmations": 20686,
    "version": 12,
    "weight": 433,
    "height": 1,
    "txRoot": "845738befb45db6872e37295b39837cd8dc98e77417754fd4ddab5ff169317be",
    "order": 1,
    "stateRoot": "0000000000000000000000000000000000000000000000000000000000000000",
    "bits": "34ad1ec",
    "difficulty": 55235052,
    "pow": {
      "pow_name": "cuckaroom",
      "pow_type": 3,
      "nonce": 5,
      "proof_data": {
        "edge_bits": 29,
        "circle_nonces": "fa50c20086aef40090ebab01295d5102697fcb0229e83b04b0ac4604fd9a6505118a6f05deb21206e88f9c07184fae075e218408884ed90bdfca630cf9e2a60c12fae80f909b831084669a109390e6105aa9c611aea1e71288408713c670641405f9a714abfcf81557ded81665b20f17a17370170628de17d4ccfb1755515618f5456918efd27918d4f4d218f91bb71954e3b11cb648ca1c9779541d51ee6b1ee12a711e0679131f"
      }
    },
    "timestamp": "2020-06-24T10:05:33+08:00",
    "parentroot": "36988b21b970fe3cbc7381dec7760eea50bc869e3bfbc44856a402fac94d3a8a",
    "parents": [
      "36988b21b970fe3cbc7381dec7760eea50bc869e3bfbc44856a402fac94d3a8a"
    ],
    "children": [
      "000de974590581de8294866535b3af182041a4cb29b71a7680b024e3bd7d12da"
    ]
  }
}
```

## getBlockByNum
### 函数名：getBlockByNum {number}
### 说明：
- number：number指按照当前节点所接受到的区块先后顺序，进行顺序的序号，一个从0开始向上增大的整数值。该序号（Num）与全网其他节点无关，即非BlockDAG共识结果的Block排序。
- verbose: 是否显示详细信息，默认为false
- inclTx: 是否包含交易信息，默认为true
- fullTx：是否显示完整交易信息，默认为true

#### 实例:

```
$ curl -s -k -u test:test -X POST -H 'Content-Type: application/json' --data '{"jsonrpc":"2.0","method":"getBlockByNum","params":[1,true],"id":1}' https://127.0.0.1:18131
```
输出：
```
{
  "jsonrpc": "2.0",
  "id": 1,
  "result": {
    "hash": "83d98f64ff6517e5899a1c392d91c334ae77a8c7705cd3ca0b147a6470d8eb08",
    "txsvalid": false,
    "confirmations": 0,
    "version": 12,
    "weight": 443,
    "height": 1,
    "txRoot": "0cda5bc3744da7fcdd4a6dbbd72b24a58b9dcd927a171021646af87aa926315d",
    "transactions": [
      {
        "hex": "010000000114898f3cc6b4de34ca419365fee41fd78d74d71a70a98caa88e1260efb876a79ffffffffffffffff01007841cb020000001976a914499896c7814a6f49fa256bc5feaa5882a665339188ac000000000000000000000000012151080300009030da6dd9162f7777772e6d656572706f6f6c2e636f6d2f32303230",
        "txid": "0cda5bc3744da7fcdd4a6dbbd72b24a58b9dcd927a171021646af87aa926315d",
        "txhash": "0ac294d88ec9ab3f9cdfff2775d3c881a44cf4b73a1aaa2c2b57e58f055e3168",
        "size": 127,
        "version": 1,
        "locktime": 0,
        "expire": 0,
        "vin": [
          {
            "coinbase": "51080300009030da6dd9162f7777772e6d656572706f6f6c2e636f6d2f32303230",
            "sequence": 4294967295
          }
        ],
        "vout": [
          {
            "amount": 12000000000,
            "scriptPubKey": {
              "asm": "OP_DUP OP_HASH160 499896c7814a6f49fa256bc5feaa5882a6653391 OP_EQUALVERIFY OP_CHECKSIG",
              "hex": "76a914499896c7814a6f49fa256bc5feaa5882a665339188ac",
              "reqSigs": 1,
              "type": "pubkeyhash",
              "addresses": [
                "TmVfDq18VqSg735ko9aAo36tFwYww4PBGMC"
              ]
            }
          }
        ],
        "blockhash": "83d98f64ff6517e5899a1c392d91c334ae77a8c7705cd3ca0b147a6470d8eb08",
        "confirmations": 0
      }
    ],
    "stateRoot": "0000000000000000000000000000000000000000000000000000000000000000",
    "bits": "1b00ffff",
    "difficulty": 453050367,
    "pow": {
      "pow_name": "qitmeer_keccak256",
      "pow_type": 6,
      "nonce": 1067495060
    },
    "timestamp": "2020-06-24T10:06:46+08:00",
    "parentroot": "36988b21b970fe3cbc7381dec7760eea50bc869e3bfbc44856a402fac94d3a8a",
    "parents": [
      "36988b21b970fe3cbc7381dec7760eea50bc869e3bfbc44856a402fac94d3a8a"
    ],
    "children": [
      "null"
    ]
  }
}
```


## getBlockCount
### 函数名：getBlockCount 
### 说明：无参数，获取区块数量

```
$ curl -s -k -u test:test -X POST -H 'Content-Type: application/json' --data '{"jsonrpc":"2.0","method":"getBlockCount","params":[],"id":1}' https://127.0.0.1:18131
```

```
{
  "jsonrpc": "2.0",
  "id": 1,
  "result": 21177
}
```

## getMempool
### 函数名：getMempool 
### 说明：
- txType: 交易类型，目前只支持regular。
- verbose：显示详细信息，目前只支持false。

#### 实例
```
curl -s -k -u test:test -X POST -H 'Content-Type: application/json' --data '{"jsonrpc":"2.0","method":"getMempool","params":["regular",false],"id":1}' https://127.0.0.1:18131
```
输出
```
{
  "jsonrpc": "2.0",
  "id": 1,
  "result": [
    "8df1c9019dd7110e9c3a421f62973ff245cbad435452808363ac291bf2265613"
  ]
}
```

## getPeerInfo
### 函数名：getPeerInfo 
### 说明：无参数，取邻近节点信息

#### 实例
```
curl -s -k -u test:test -X POST -H 'Content-Type: application/json' --data '{"jsonrpc":"2.0","method":"getPeerInfo","params":[],"id":null}' https://127.0.0.1:18131
```

输出:
```
[
  {
    "uuid": "f280f357-ee4a-4958-90bf-685d24129703",
    "id": 5,
    "addr": "103.1.154.227:18130",
    "addrlocal": "10.198.1.66:56261",
    "services": "00000009",
    "relaytxes": true,
    "lastsend": 1593576243,
    "lastrecv": 1593576298,
    "bytessent": 5029,
    "bytesrecv": 7315,
    "conntime": 1593575403,
    "timeoffset": 0,
    "pingtime": 371602,
    "version": 20,
    "subver": "qitmeer:0.9.0",
    "inbound": false,
    "banscore": 0,
    "syncnode": false,
    "graphstate": {
      "tips": [
        "0002cf49681506f5b9915c4fa199e76abc8a7d7ade9cafbe1cd1f84ec89e0704 main"
      ],
      "mainorder": 21199,
      "mainheight": 20730,
      "layer": 20730
    }
  },
  {
    "uuid": "b0c3462f-328d-45ba-8e3f-490c205eec85",
    "id": 6,
    "addr": "47.103.61.128:18130",
    "addrlocal": "10.198.1.66:56262",
    "services": "00000009",
    "relaytxes": true,
    "lastsend": 1593576298,
    "lastrecv": 1593576299,
    "bytessent": 2941,
    "bytesrecv": 16892,
    "conntime": 1593575403,
    "timeoffset": 0,
    "pingtime": 871878,
    "version": 20,
    "subver": "qitmeer:0.9.0",
    "inbound": false,
    "banscore": 0,
    "syncnode": false,
    "graphstate": {
      "tips": [
        "0002cf49681506f5b9915c4fa199e76abc8a7d7ade9cafbe1cd1f84ec89e0704 main"
      ],
      "mainorder": 21199,
      "mainheight": 20730,
      "layer": 20730
    }
  },
  {
    "uuid": "349a58ee-3537-4576-ba8a-925a27725070",
    "id": 7,
    "addr": "106.15.102.183:18130",
    "addrlocal": "10.198.1.66:56284",
    "services": "00000009",
    "relaytxes": true,
    "lastsend": 1593576254,
    "lastrecv": 1593576298,
    "bytessent": 1471,
    "bytesrecv": 7965,
    "conntime": 1593575414,
    "timeoffset": 0,
    "pingtime": 485255,
    "version": 20,
    "subver": "qitmeer:0.9.0",
    "inbound": false,
    "banscore": 0,
    "syncnode": false,
    "graphstate": {
      "tips": [
        "0002cf49681506f5b9915c4fa199e76abc8a7d7ade9cafbe1cd1f84ec89e0704 main"
      ],
      "mainorder": 21199,
      "mainheight": 20730,
      "layer": 20730
    }
  },
  {
    "uuid": "400176fd-8155-405c-ae4f-032948581558",
    "id": 8,
    "addr": "148.70.34.136:18130",
    "addrlocal": "10.198.1.66:56413",
    "services": "00000009",
    "relaytxes": true,
    "lastsend": 1593576307,
    "lastrecv": 1593576308,
    "bytessent": 1757,
    "bytesrecv": 11162,
    "conntime": 1593575465,
    "timeoffset": 0,
    "pingtime": 830143,
    "version": 20,
    "subver": "qitmeer:0.9.0",
    "inbound": false,
    "banscore": 0,
    "syncnode": false,
    "graphstate": {
      "tips": [
        "0002cf49681506f5b9915c4fa199e76abc8a7d7ade9cafbe1cd1f84ec89e0704 main"
      ],
      "mainorder": 21199,
      "mainheight": 20730,
      "layer": 20730
    }
  },
  {
    "uuid": "1df6c4ca-dae0-4632-bdb2-d9ef916b7580",
    "id": 1,
    "addr": "104.224.174.141:18130",
    "addrlocal": "10.198.1.66:56182",
    "services": "00000009",
    "relaytxes": true,
    "lastsend": 1593576333,
    "lastrecv": 1593576333,
    "bytessent": 4259,
    "bytesrecv": 1214,
    "conntime": 1593575373,
    "timeoffset": 0,
    "pingtime": 244235,
    "version": 20,
    "subver": "qitmeer:0.9.0",
    "inbound": false,
    "banscore": 0,
    "syncnode": false,
    "graphstate": {
      "tips": [
        "3b3b4e71e7ab837635da8442afb98ba4092a2df62cf25e59a58bda518ce81fca main"
      ],
      "mainorder": 21065,
      "mainheight": 20597,
      "layer": 20597
    }
  },
  {
    "uuid": "a8383106-45dc-4028-ae04-74d25ad09f7d",
    "id": 2,
    "addr": "144.202.90.65:18130",
    "addrlocal": "10.198.1.66:56177",
    "services": "00000009",
    "relaytxes": true,
    "lastsend": 1593576333,
    "lastrecv": 1593576333,
    "bytessent": 5178,
    "bytesrecv": 8411,
    "conntime": 1593575373,
    "timeoffset": 0,
    "pingtime": 259579,
    "version": 20,
    "subver": "qitmeer:0.9.0",
    "inbound": false,
    "banscore": 0,
    "syncnode": true,
    "graphstate": {
      "tips": [
        "0002cf49681506f5b9915c4fa199e76abc8a7d7ade9cafbe1cd1f84ec89e0704 main"
      ],
      "mainorder": 21199,
      "mainheight": 20730,
      "layer": 20730
    }
  },
  {
    "uuid": "277d5f3f-3af3-486e-92ca-8da59eaa6db9",
    "id": 4,
    "addr": "122.112.245.133:18130",
    "addrlocal": "10.198.1.66:56180",
    "services": "00000009",
    "relaytxes": true,
    "lastsend": 1593576333,
    "lastrecv": 1593576334,
    "bytessent": 1692,
    "bytesrecv": 9459,
    "conntime": 1593575373,
    "timeoffset": 0,
    "pingtime": 414095,
    "version": 20,
    "subver": "qitmeer:0.9.0",
    "inbound": false,
    "banscore": 0,
    "syncnode": false,
    "graphstate": {
      "tips": [
        "0002cf49681506f5b9915c4fa199e76abc8a7d7ade9cafbe1cd1f84ec89e0704 main"
      ],
      "mainorder": 21199,
      "mainheight": 20730,
      "layer": 20730
    }
  },
  {
    "uuid": "38d8647f-371d-47c6-924b-ddfe32391a83",
    "id": 3,
    "addr": "103.29.70.78:18130",
    "addrlocal": "10.198.1.66:56175",
    "services": "00000009",
    "relaytxes": true,
    "lastsend": 1593576333,
    "lastrecv": 1593576334,
    "bytessent": 2421,
    "bytesrecv": 6656,
    "conntime": 1593575373,
    "timeoffset": -1,
    "pingtime": 345824,
    "version": 21,
    "subver": "qitmeer:0.9.1",
    "inbound": false,
    "banscore": 0,
    "syncnode": false,
    "graphstate": {
      "tips": [
        "0002cf49681506f5b9915c4fa199e76abc8a7d7ade9cafbe1cd1f84ec89e0704 main"
      ],
      "mainorder": 21199,
      "mainheight": 20730,
      "layer": 20730
    }
  }
]

```

## getNodeInfo
### 函数名：getNodeInfo 
### 说明：无参数，获取该节点信息

#### 实例

```
curl -s -k -u test:test -X POST -H 'Content-Type: application/json' --data '{"jsonrpc":"2.0","method":"getNodeInfo","params":[],"id":null}' https://127.0.0.1:18131
```

输出：
```
{
  "UUID": "dc4dffc6-9c0c-417f-9cb2-a1fdc4877915",
  "version": 90100,
  "buildversion": "0.9.1+dev-7ae8c17",
  "protocolversion": 21,
  "totalsubsidy": 254484000000000,
  "graphstate": {
    "tips": [
      "00006869b1f1e29db24cc528a86370b4355f1dc6a618ac0549495679f0bc484b main"
    ],
    "mainorder": 21207,
    "mainheight": 20738,
    "layer": 20738
  },
  "timeoffset": 0,
  "connections": 8,
  "pow_diff": {
    "blake2bd_diff": 1,
    "cuckaroo_diff": 1,
    "cuckatoo_diff": 1
  },
  "testnet": true,
  "mixnet": false,
  "confirmations": 10,
  "coinbasematurity": 720,
  "errors": "",
  "modules": [
    "qitmeer",
    "miner",
    "test"
  ]
}
```

#### 结果说明：
- confirmations：代表非coinbase交易的UXTO可以被花费的最小确认数，当前的共识的最小确认数为10个确认。
- coinbasematurity：代表coinbase交易的UXTO可以被花费的最小确认数，当前的共识是720个确认。
- 注：不论coinbase交易还是非coinbase交易，除了满足各自的最小确认条件外，还需要包含该交易的区块满足如下条件，才能满足该该交易的UTXO可花费：
  - 1.）BlockDAG共识约束，即该区块为蓝色区块，详见见rpc isBule
  - 2.）该区块为交易合法区块，即区块的`txsvalid`属性为true。详见rpc getBlockByOrder



# isBlue
### 函数名：isBlue {blockhash}
### 说明：通过节点判断该块是否为蓝色区块
- blockhash：区块hash

### 结果说明：
- 0:为红色区块，该块coinbase不能交易
- 1:为蓝色区块，该块的coinbase可以交易
- 2:还不能确定是蓝色或红色，待确认

#### 实例1 
```
$ curl -s -k -u test:test -X POST -H 'Content-Type: application/json' --data '{"jsonrpc":"2.0","method":"isBlue","params":["0003409cc9bcfc328630982797326e62135d6fc2431db7b85c2a0fe38ff5749c"],"id":1}' https://127.0.0.1:18131
```
```
{
  "jsonrpc": "2.0",
  "id": 1,
  "result": 2
}
```
#### 实例2
可以观察到对于是否蓝色区块的判断，由2变为了1。由不能确认，变为的蓝色区块儿。

```
$ date
Wed Jul  1 12:23:39 CST 2020
$ curl -s -k -u test:test -X POST -H 'Content-Type: application/json' --data '{"jsonrpc":"2.0","method":"isBlue","params":
["0003409cc9bcfc328630982797326e62135d6fc2431db7b85c2a0fe38ff5749c"],"id":1}' https://127.0.0.1:18131
```

```
{
  "jsonrpc": "2.0",
  "id": 1,
  "result": 1
}
```


## getRawTransaction
### 函数名：getRawTransaction {txid}
### 说明：通过txid获取交易

```

getRawTransaction 000000e4c6b7f5b89827711d412957bfff5c51730df05c2eedd1352468313eca


{
    "hex": "0100000001cf6849e307726cfd51ad93b994c4dcdc390b782ad34cfafbcacf47f17c639606ffffffffffffffff010042dc06030000001976a914883e0d08cf453696b756baabadae1da8ab3f227888ac000000000000000001435c08d0b7b3581e39345913363432373832353337303636343531353533362431613037373964612d616466352d346365392d613962652d626238613732636639333232",
    "txid": "df492c0f85fee7fd883c45dbb1bbbcec4bf2ea1e315f33aee0e27bddaede35c3",
    "txhash": "26f8a70736ef23ac4ba57c91563360ba44ec8c0b448c2b20d05ad5387040acaa",
    "size": 157,
    "version": 1,
    "locktime": 0,
    "expire": 0,
    "vin": [
        {
            "coinbase": "5c08d0b7b3581e39345913363432373832353337303636343531353533362431613037373964612d616466352d346365392d613962652d626238613732636639333232",
            "sequence": 4294967295
        }
    ],
    "vout": [
        {
            "amount": 13000000000,
            "scriptPubKey": {
                "asm": "OP_DUP OP_HASH160 883e0d08cf453696b756baabadae1da8ab3f2278 OP_EQUALVERIFY OP_CHECKSIG",
                "hex": "76a914883e0d08cf453696b756baabadae1da8ab3f227888ac",
                "reqSigs": 1,
                "type": "pubkeyhash",
                "addresses": [
                    "TmbNTwPm9aTN7TtStnJjrcjsaRJWm4gt3Fs"
                ]
            }
        }
    ],
    "blockhash": "3df0e5bb739d7ac0e4d34f621514d485dff3a3c0be31c161cc891787172caade",
    "confirmations": 7838
}

```

## sendRawTransaction
### 函数名：sendRawTransaction {sign_raw_tx} {allow_high_fee}
### 说明：发送交易

- sign_raw_tx:签名后的交易
- allow_high_fee：允许的最大交易费

#### 实例：

```

sendRawTransaction 0100000001ff5d53a7070fa9f0a9d12af729d2cbaf355ef1173c106a84cf9ef3a46bff03b202000000ffffffff01005504790a0000001976a914627777996288556166614462639988446255776688ac000000000000000001000000000000000000000000ffffffff6b483045022100dced4d67dd74647d0036077ee5b435838934377b1d296dd9da852772911e3be2022063dd346bd812a894968b8acacead7e7beff48947657a82f1e8f9c38876d4c905012103aba0a09f5b44138a46a2e5d26b8659923d84c4ba9437e22c3828cac43d0edb49 true

```
